{
	"data": {
		"bytecode": {
			"linkReferences": {},
			"object": "60806040526040516200116038038062001160833981016040819052620000269162000432565b818180518251146200009a5760405162461bcd60e51b815260206004820152603260248201527f5061796d656e7453706c69747465723a2070617965657320616e6420736861726044820152710cae640d8cadccee8d040dad2e6dac2e8c6d60731b60648201526084015b60405180910390fd5b6000825111620000ed5760405162461bcd60e51b815260206004820152601a60248201527f5061796d656e7453706c69747465723a206e6f20706179656573000000000000604482015260640162000091565b60005b825181101562000159576200014483828151811062000113576200011362000510565b602002602001015183838151811062000130576200013062000510565b60200260200101516200016460201b60201c565b8062000150816200053c565b915050620000f0565b505050505062000575565b6001600160a01b038216620001d15760405162461bcd60e51b815260206004820152602c60248201527f5061796d656e7453706c69747465723a206163636f756e74206973207468652060448201526b7a65726f206164647265737360a01b606482015260840162000091565b60008111620002235760405162461bcd60e51b815260206004820152601d60248201527f5061796d656e7453706c69747465723a20736861726573206172652030000000604482015260640162000091565b6001600160a01b038216600090815260026020526040902054156200029f5760405162461bcd60e51b815260206004820152602b60248201527f5061796d656e7453706c69747465723a206163636f756e7420616c726561647960448201526a206861732073686172657360a81b606482015260840162000091565b60048054600181019091557f8a35acfbc15ff81a39ae7d344fd709f28e8600b4aa8c65c6b64bfe7fe36bd19b0180546001600160a01b0319166001600160a01b038416908117909155600090815260026020526040812082905554620003079082906200055a565b600055604080516001600160a01b0384168152602081018390527f40c340f65e17194d14ddddb073d3c9f888e3cb52b5aae0c6c7706b4fbc905fac910160405180910390a15050565b634e487b7160e01b600052604160045260246000fd5b604051601f8201601f191681016001600160401b038111828210171562000391576200039162000350565b604052919050565b60006001600160401b03821115620003b557620003b562000350565b5060051b60200190565b600082601f830112620003d157600080fd5b81516020620003ea620003e48362000399565b62000366565b82815260059290921b840181019181810190868411156200040a57600080fd5b8286015b848110156200042757805183529183019183016200040e565b509695505050505050565b600080604083850312156200044657600080fd5b82516001600160401b03808211156200045e57600080fd5b818501915085601f8301126200047357600080fd5b8151602062000486620003e48362000399565b82815260059290921b84018101918181019089841115620004a657600080fd5b948201945b83861015620004dd5785516001600160a01b0381168114620004cd5760008081fd5b82529482019490820190620004ab565b91880151919650909350505080821115620004f757600080fd5b506200050685828601620003bf565b9150509250929050565b634e487b7160e01b600052603260045260246000fd5b634e487b7160e01b600052601160045260246000fd5b600060001982141562000553576200055362000526565b5060010190565b6000821982111562000570576200057062000526565b500190565b610bdb80620005856000396000f3fe60806040526004361061008a5760003560e01c80638b83209b116100595780638b83209b146101845780639852595c146101bc578063ce7c2ac2146101f2578063d79779b214610228578063e33b7de31461025e57600080fd5b806319165587146100d85780633a98ef39146100fa578063406072a91461011e57806348b750441461016457600080fd5b366100d3577f6ef95f06320e7a25a04a175ca677b7052bdd97131872c2192525a629f51be77033604080516001600160a01b0390921682523460208301520160405180910390a1005b600080fd5b3480156100e457600080fd5b506100f86100f336600461094f565b610273565b005b34801561010657600080fd5b506000545b6040519081526020015b60405180910390f35b34801561012a57600080fd5b5061010b61013936600461096c565b6001600160a01b03918216600090815260066020908152604080832093909416825291909152205490565b34801561017057600080fd5b506100f861017f36600461096c565b6103aa565b34801561019057600080fd5b506101a461019f3660046109a5565b610583565b6040516001600160a01b039091168152602001610115565b3480156101c857600080fd5b5061010b6101d736600461094f565b6001600160a01b031660009081526003602052604090205490565b3480156101fe57600080fd5b5061010b61020d36600461094f565b6001600160a01b031660009081526002602052604090205490565b34801561023457600080fd5b5061010b61024336600461094f565b6001600160a01b031660009081526005602052604090205490565b34801561026a57600080fd5b5060015461010b565b6001600160a01b0381166000908152600260205260409020546102b15760405162461bcd60e51b81526004016102a8906109be565b60405180910390fd5b60006102bc60015490565b6102c69047610a1a565b905060006102f383836102ee866001600160a01b031660009081526003602052604090205490565b6105b3565b9050806103125760405162461bcd60e51b81526004016102a890610a32565b6001600160a01b0383166000908152600360205260408120805483929061033a908490610a1a565b9250508190555080600160008282546103539190610a1a565b90915550610363905083826105f8565b604080516001600160a01b0385168152602081018390527fdf20fd1e76bc69d672e4814fafb2c449bba3a5369d8359adf9e05e6fde87b056910160405180910390a1505050565b6001600160a01b0381166000908152600260205260409020546103df5760405162461bcd60e51b81526004016102a8906109be565b6001600160a01b0382166000908152600560205260408120546040516370a0823160e01b81523060048201526001600160a01b038516906370a0823190602401602060405180830381865afa15801561043c573d6000803e3d6000fd5b505050506040513d601f19601f820116820180604052508101906104609190610a7d565b61046a9190610a1a565b905060006104a383836102ee87876001600160a01b03918216600090815260066020908152604080832093909416825291909152205490565b9050806104c25760405162461bcd60e51b81526004016102a890610a32565b6001600160a01b038085166000908152600660209081526040808320938716835292905290812080548392906104f9908490610a1a565b90915550506001600160a01b03841660009081526005602052604081208054839290610526908490610a1a565b909155506105379050848483610716565b604080516001600160a01b038581168252602082018490528616917f3be5b7a71e84ed12875d241991c70855ac5817d847039e17a9d895c1ceb0f18a910160405180910390a250505050565b60006004828154811061059857610598610a96565b6000918252602090912001546001600160a01b031692915050565b600080546001600160a01b0385168252600260205260408220548391906105da9086610aac565b6105e49190610acb565b6105ee9190610aed565b90505b9392505050565b804710156106485760405162461bcd60e51b815260206004820152601d60248201527f416464726573733a20696e73756666696369656e742062616c616e636500000060448201526064016102a8565b6000826001600160a01b03168260405160006040518083038185875af1925050503d8060008114610695576040519150601f19603f3d011682016040523d82523d6000602084013e61069a565b606091505b50509050806107115760405162461bcd60e51b815260206004820152603a60248201527f416464726573733a20756e61626c6520746f2073656e642076616c75652c207260448201527f6563697069656e74206d6179206861766520726576657274656400000000000060648201526084016102a8565b505050565b604080516001600160a01b03848116602483015260448083018590528351808403909101815260649092018352602080830180516001600160e01b031663a9059cbb60e01b17905283518085019094528084527f5361666545524332303a206c6f772d6c6576656c2063616c6c206661696c656490840152610711928692916000916107a6918516908490610823565b80519091501561071157808060200190518101906107c49190610b04565b6107115760405162461bcd60e51b815260206004820152602a60248201527f5361666545524332303a204552433230206f7065726174696f6e20646964206e6044820152691bdd081cdd58d8d9595960b21b60648201526084016102a8565b60606105ee8484600085856001600160a01b0385163b6108855760405162461bcd60e51b815260206004820152601d60248201527f416464726573733a2063616c6c20746f206e6f6e2d636f6e747261637400000060448201526064016102a8565b600080866001600160a01b031685876040516108a19190610b56565b60006040518083038185875af1925050503d80600081146108de576040519150601f19603f3d011682016040523d82523d6000602084013e6108e3565b606091505b50915091506108f38282866108fe565b979650505050505050565b6060831561090d5750816105f1565b82511561091d5782518084602001fd5b8160405162461bcd60e51b81526004016102a89190610b72565b6001600160a01b038116811461094c57600080fd5b50565b60006020828403121561096157600080fd5b81356105f181610937565b6000806040838503121561097f57600080fd5b823561098a81610937565b9150602083013561099a81610937565b809150509250929050565b6000602082840312156109b757600080fd5b5035919050565b60208082526026908201527f5061796d656e7453706c69747465723a206163636f756e7420686173206e6f2060408201526573686172657360d01b606082015260800190565b634e487b7160e01b600052601160045260246000fd5b60008219821115610a2d57610a2d610a04565b500190565b6020808252602b908201527f5061796d656e7453706c69747465723a206163636f756e74206973206e6f742060408201526a191d59481c185e5b595b9d60aa1b606082015260800190565b600060208284031215610a8f57600080fd5b5051919050565b634e487b7160e01b600052603260045260246000fd5b6000816000190483118215151615610ac657610ac6610a04565b500290565b600082610ae857634e487b7160e01b600052601260045260246000fd5b500490565b600082821015610aff57610aff610a04565b500390565b600060208284031215610b1657600080fd5b815180151581146105f157600080fd5b60005b83811015610b41578181015183820152602001610b29565b83811115610b50576000848401525b50505050565b60008251610b68818460208701610b26565b9190910192915050565b6020815260008251806020840152610b91816040850160208701610b26565b601f01601f1916919091016040019291505056fea2646970667358221220be22e02e3b964fa8199cb6aaadb3a741b689f83d38b9abc7dada44a14c87b07064736f6c634300080b0033",
			"opcodes": "PUSH1 0x80 PUSH1 0x40 MSTORE PUSH1 0x40 MLOAD PUSH3 0x1160 CODESIZE SUB DUP1 PUSH3 0x1160 DUP4 CODECOPY DUP2 ADD PUSH1 0x40 DUP2 SWAP1 MSTORE PUSH3 0x26 SWAP2 PUSH3 0x432 JUMP JUMPDEST DUP2 DUP2 DUP1 MLOAD DUP3 MLOAD EQ PUSH3 0x9A JUMPI PUSH1 0x40 MLOAD PUSH3 0x461BCD PUSH1 0xE5 SHL DUP2 MSTORE PUSH1 0x20 PUSH1 0x4 DUP3 ADD MSTORE PUSH1 0x32 PUSH1 0x24 DUP3 ADD MSTORE PUSH32 0x5061796D656E7453706C69747465723A2070617965657320616E642073686172 PUSH1 0x44 DUP3 ADD MSTORE PUSH18 0xCAE640D8CADCCEE8D040DAD2E6DAC2E8C6D PUSH1 0x73 SHL PUSH1 0x64 DUP3 ADD MSTORE PUSH1 0x84 ADD JUMPDEST PUSH1 0x40 MLOAD DUP1 SWAP2 SUB SWAP1 REVERT JUMPDEST PUSH1 0x0 DUP3 MLOAD GT PUSH3 0xED JUMPI PUSH1 0x40 MLOAD PUSH3 0x461BCD PUSH1 0xE5 SHL DUP2 MSTORE PUSH1 0x20 PUSH1 0x4 DUP3 ADD MSTORE PUSH1 0x1A PUSH1 0x24 DUP3 ADD MSTORE PUSH32 0x5061796D656E7453706C69747465723A206E6F20706179656573000000000000 PUSH1 0x44 DUP3 ADD MSTORE PUSH1 0x64 ADD PUSH3 0x91 JUMP JUMPDEST PUSH1 0x0 JUMPDEST DUP3 MLOAD DUP2 LT ISZERO PUSH3 0x159 JUMPI PUSH3 0x144 DUP4 DUP3 DUP2 MLOAD DUP2 LT PUSH3 0x113 JUMPI PUSH3 0x113 PUSH3 0x510 JUMP JUMPDEST PUSH1 0x20 MUL PUSH1 0x20 ADD ADD MLOAD DUP4 DUP4 DUP2 MLOAD DUP2 LT PUSH3 0x130 JUMPI PUSH3 0x130 PUSH3 0x510 JUMP JUMPDEST PUSH1 0x20 MUL PUSH1 0x20 ADD ADD MLOAD PUSH3 0x164 PUSH1 0x20 SHL PUSH1 0x20 SHR JUMP JUMPDEST DUP1 PUSH3 0x150 DUP2 PUSH3 0x53C JUMP JUMPDEST SWAP2 POP POP PUSH3 0xF0 JUMP JUMPDEST POP POP POP POP POP PUSH3 0x575 JUMP JUMPDEST PUSH1 0x1 PUSH1 0x1 PUSH1 0xA0 SHL SUB DUP3 AND PUSH3 0x1D1 JUMPI PUSH1 0x40 MLOAD PUSH3 0x461BCD PUSH1 0xE5 SHL DUP2 MSTORE PUSH1 0x20 PUSH1 0x4 DUP3 ADD MSTORE PUSH1 0x2C PUSH1 0x24 DUP3 ADD MSTORE PUSH32 0x5061796D656E7453706C69747465723A206163636F756E742069732074686520 PUSH1 0x44 DUP3 ADD MSTORE PUSH12 0x7A65726F2061646472657373 PUSH1 0xA0 SHL PUSH1 0x64 DUP3 ADD MSTORE PUSH1 0x84 ADD PUSH3 0x91 JUMP JUMPDEST PUSH1 0x0 DUP2 GT PUSH3 0x223 JUMPI PUSH1 0x40 MLOAD PUSH3 0x461BCD PUSH1 0xE5 SHL DUP2 MSTORE PUSH1 0x20 PUSH1 0x4 DUP3 ADD MSTORE PUSH1 0x1D PUSH1 0x24 DUP3 ADD MSTORE PUSH32 0x5061796D656E7453706C69747465723A20736861726573206172652030000000 PUSH1 0x44 DUP3 ADD MSTORE PUSH1 0x64 ADD PUSH3 0x91 JUMP JUMPDEST PUSH1 0x1 PUSH1 0x1 PUSH1 0xA0 SHL SUB DUP3 AND PUSH1 0x0 SWAP1 DUP2 MSTORE PUSH1 0x2 PUSH1 0x20 MSTORE PUSH1 0x40 SWAP1 KECCAK256 SLOAD ISZERO PUSH3 0x29F JUMPI PUSH1 0x40 MLOAD PUSH3 0x461BCD PUSH1 0xE5 SHL DUP2 MSTORE PUSH1 0x20 PUSH1 0x4 DUP3 ADD MSTORE PUSH1 0x2B PUSH1 0x24 DUP3 ADD MSTORE PUSH32 0x5061796D656E7453706C69747465723A206163636F756E7420616C7265616479 PUSH1 0x44 DUP3 ADD MSTORE PUSH11 0x2068617320736861726573 PUSH1 0xA8 SHL PUSH1 0x64 DUP3 ADD MSTORE PUSH1 0x84 ADD PUSH3 0x91 JUMP JUMPDEST PUSH1 0x4 DUP1 SLOAD PUSH1 0x1 DUP2 ADD SWAP1 SWAP2 SSTORE PUSH32 0x8A35ACFBC15FF81A39AE7D344FD709F28E8600B4AA8C65C6B64BFE7FE36BD19B ADD DUP1 SLOAD PUSH1 0x1 PUSH1 0x1 PUSH1 0xA0 SHL SUB NOT AND PUSH1 0x1 PUSH1 0x1 PUSH1 0xA0 SHL SUB DUP5 AND SWAP1 DUP2 OR SWAP1 SWAP2 SSTORE PUSH1 0x0 SWAP1 DUP2 MSTORE PUSH1 0x2 PUSH1 0x20 MSTORE PUSH1 0x40 DUP2 KECCAK256 DUP3 SWAP1 SSTORE SLOAD PUSH3 0x307 SWAP1 DUP3 SWAP1 PUSH3 0x55A JUMP JUMPDEST PUSH1 0x0 SSTORE PUSH1 0x40 DUP1 MLOAD PUSH1 0x1 PUSH1 0x1 PUSH1 0xA0 SHL SUB DUP5 AND DUP2 MSTORE PUSH1 0x20 DUP2 ADD DUP4 SWAP1 MSTORE PUSH32 0x40C340F65E17194D14DDDDB073D3C9F888E3CB52B5AAE0C6C7706B4FBC905FAC SWAP2 ADD PUSH1 0x40 MLOAD DUP1 SWAP2 SUB SWAP1 LOG1 POP POP JUMP JUMPDEST PUSH4 0x4E487B71 PUSH1 0xE0 SHL PUSH1 0x0 MSTORE PUSH1 0x41 PUSH1 0x4 MSTORE PUSH1 0x24 PUSH1 0x0 REVERT JUMPDEST PUSH1 0x40 MLOAD PUSH1 0x1F DUP3 ADD PUSH1 0x1F NOT AND DUP2 ADD PUSH1 0x1 PUSH1 0x1 PUSH1 0x40 SHL SUB DUP2 GT DUP3 DUP3 LT OR ISZERO PUSH3 0x391 JUMPI PUSH3 0x391 PUSH3 0x350 JUMP JUMPDEST PUSH1 0x40 MSTORE SWAP2 SWAP1 POP JUMP JUMPDEST PUSH1 0x0 PUSH1 0x1 PUSH1 0x1 PUSH1 0x40 SHL SUB DUP3 GT ISZERO PUSH3 0x3B5 JUMPI PUSH3 0x3B5 PUSH3 0x350 JUMP JUMPDEST POP PUSH1 0x5 SHL PUSH1 0x20 ADD SWAP1 JUMP JUMPDEST PUSH1 0x0 DUP3 PUSH1 0x1F DUP4 ADD SLT PUSH3 0x3D1 JUMPI PUSH1 0x0 DUP1 REVERT JUMPDEST DUP2 MLOAD PUSH1 0x20 PUSH3 0x3EA PUSH3 0x3E4 DUP4 PUSH3 0x399 JUMP JUMPDEST PUSH3 0x366 JUMP JUMPDEST DUP3 DUP2 MSTORE PUSH1 0x5 SWAP3 SWAP1 SWAP3 SHL DUP5 ADD DUP2 ADD SWAP2 DUP2 DUP2 ADD SWAP1 DUP7 DUP5 GT ISZERO PUSH3 0x40A JUMPI PUSH1 0x0 DUP1 REVERT JUMPDEST DUP3 DUP7 ADD JUMPDEST DUP5 DUP2 LT ISZERO PUSH3 0x427 JUMPI DUP1 MLOAD DUP4 MSTORE SWAP2 DUP4 ADD SWAP2 DUP4 ADD PUSH3 0x40E JUMP JUMPDEST POP SWAP7 SWAP6 POP POP POP POP POP POP JUMP JUMPDEST PUSH1 0x0 DUP1 PUSH1 0x40 DUP4 DUP6 SUB SLT ISZERO PUSH3 0x446 JUMPI PUSH1 0x0 DUP1 REVERT JUMPDEST DUP3 MLOAD PUSH1 0x1 PUSH1 0x1 PUSH1 0x40 SHL SUB DUP1 DUP3 GT ISZERO PUSH3 0x45E JUMPI PUSH1 0x0 DUP1 REVERT JUMPDEST DUP2 DUP6 ADD SWAP2 POP DUP6 PUSH1 0x1F DUP4 ADD SLT PUSH3 0x473 JUMPI PUSH1 0x0 DUP1 REVERT JUMPDEST DUP2 MLOAD PUSH1 0x20 PUSH3 0x486 PUSH3 0x3E4 DUP4 PUSH3 0x399 JUMP JUMPDEST DUP3 DUP2 MSTORE PUSH1 0x5 SWAP3 SWAP1 SWAP3 SHL DUP5 ADD DUP2 ADD SWAP2 DUP2 DUP2 ADD SWAP1 DUP10 DUP5 GT ISZERO PUSH3 0x4A6 JUMPI PUSH1 0x0 DUP1 REVERT JUMPDEST SWAP5 DUP3 ADD SWAP5 JUMPDEST DUP4 DUP7 LT ISZERO PUSH3 0x4DD JUMPI DUP6 MLOAD PUSH1 0x1 PUSH1 0x1 PUSH1 0xA0 SHL SUB DUP2 AND DUP2 EQ PUSH3 0x4CD JUMPI PUSH1 0x0 DUP1 DUP2 REVERT JUMPDEST DUP3 MSTORE SWAP5 DUP3 ADD SWAP5 SWAP1 DUP3 ADD SWAP1 PUSH3 0x4AB JUMP JUMPDEST SWAP2 DUP9 ADD MLOAD SWAP2 SWAP7 POP SWAP1 SWAP4 POP POP POP DUP1 DUP3 GT ISZERO PUSH3 0x4F7 JUMPI PUSH1 0x0 DUP1 REVERT JUMPDEST POP PUSH3 0x506 DUP6 DUP3 DUP7 ADD PUSH3 0x3BF JUMP JUMPDEST SWAP2 POP POP SWAP3 POP SWAP3 SWAP1 POP JUMP JUMPDEST PUSH4 0x4E487B71 PUSH1 0xE0 SHL PUSH1 0x0 MSTORE PUSH1 0x32 PUSH1 0x4 MSTORE PUSH1 0x24 PUSH1 0x0 REVERT JUMPDEST PUSH4 0x4E487B71 PUSH1 0xE0 SHL PUSH1 0x0 MSTORE PUSH1 0x11 PUSH1 0x4 MSTORE PUSH1 0x24 PUSH1 0x0 REVERT JUMPDEST PUSH1 0x0 PUSH1 0x0 NOT DUP3 EQ ISZERO PUSH3 0x553 JUMPI PUSH3 0x553 PUSH3 0x526 JUMP JUMPDEST POP PUSH1 0x1 ADD SWAP1 JUMP JUMPDEST PUSH1 0x0 DUP3 NOT DUP3 GT ISZERO PUSH3 0x570 JUMPI PUSH3 0x570 PUSH3 0x526 JUMP JUMPDEST POP ADD SWAP1 JUMP JUMPDEST PUSH2 0xBDB DUP1 PUSH3 0x585 PUSH1 0x0 CODECOPY PUSH1 0x0 RETURN INVALID PUSH1 0x80 PUSH1 0x40 MSTORE PUSH1 0x4 CALLDATASIZE LT PUSH2 0x8A JUMPI PUSH1 0x0 CALLDATALOAD PUSH1 0xE0 SHR DUP1 PUSH4 0x8B83209B GT PUSH2 0x59 JUMPI DUP1 PUSH4 0x8B83209B EQ PUSH2 0x184 JUMPI DUP1 PUSH4 0x9852595C EQ PUSH2 0x1BC JUMPI DUP1 PUSH4 0xCE7C2AC2 EQ PUSH2 0x1F2 JUMPI DUP1 PUSH4 0xD79779B2 EQ PUSH2 0x228 JUMPI DUP1 PUSH4 0xE33B7DE3 EQ PUSH2 0x25E JUMPI PUSH1 0x0 DUP1 REVERT JUMPDEST DUP1 PUSH4 0x19165587 EQ PUSH2 0xD8 JUMPI DUP1 PUSH4 0x3A98EF39 EQ PUSH2 0xFA JUMPI DUP1 PUSH4 0x406072A9 EQ PUSH2 0x11E JUMPI DUP1 PUSH4 0x48B75044 EQ PUSH2 0x164 JUMPI PUSH1 0x0 DUP1 REVERT JUMPDEST CALLDATASIZE PUSH2 0xD3 JUMPI PUSH32 0x6EF95F06320E7A25A04A175CA677B7052BDD97131872C2192525A629F51BE770 CALLER PUSH1 0x40 DUP1 MLOAD PUSH1 0x1 PUSH1 0x1 PUSH1 0xA0 SHL SUB SWAP1 SWAP3 AND DUP3 MSTORE CALLVALUE PUSH1 0x20 DUP4 ADD MSTORE ADD PUSH1 0x40 MLOAD DUP1 SWAP2 SUB SWAP1 LOG1 STOP JUMPDEST PUSH1 0x0 DUP1 REVERT JUMPDEST CALLVALUE DUP1 ISZERO PUSH2 0xE4 JUMPI PUSH1 0x0 DUP1 REVERT JUMPDEST POP PUSH2 0xF8 PUSH2 0xF3 CALLDATASIZE PUSH1 0x4 PUSH2 0x94F JUMP JUMPDEST PUSH2 0x273 JUMP JUMPDEST STOP JUMPDEST CALLVALUE DUP1 ISZERO PUSH2 0x106 JUMPI PUSH1 0x0 DUP1 REVERT JUMPDEST POP PUSH1 0x0 SLOAD JUMPDEST PUSH1 0x40 MLOAD SWAP1 DUP2 MSTORE PUSH1 0x20 ADD JUMPDEST PUSH1 0x40 MLOAD DUP1 SWAP2 SUB SWAP1 RETURN JUMPDEST CALLVALUE DUP1 ISZERO PUSH2 0x12A JUMPI PUSH1 0x0 DUP1 REVERT JUMPDEST POP PUSH2 0x10B PUSH2 0x139 CALLDATASIZE PUSH1 0x4 PUSH2 0x96C JUMP JUMPDEST PUSH1 0x1 PUSH1 0x1 PUSH1 0xA0 SHL SUB SWAP2 DUP3 AND PUSH1 0x0 SWAP1 DUP2 MSTORE PUSH1 0x6 PUSH1 0x20 SWAP1 DUP2 MSTORE PUSH1 0x40 DUP1 DUP4 KECCAK256 SWAP4 SWAP1 SWAP5 AND DUP3 MSTORE SWAP2 SWAP1 SWAP2 MSTORE KECCAK256 SLOAD SWAP1 JUMP JUMPDEST CALLVALUE DUP1 ISZERO PUSH2 0x170 JUMPI PUSH1 0x0 DUP1 REVERT JUMPDEST POP PUSH2 0xF8 PUSH2 0x17F CALLDATASIZE PUSH1 0x4 PUSH2 0x96C JUMP JUMPDEST PUSH2 0x3AA JUMP JUMPDEST CALLVALUE DUP1 ISZERO PUSH2 0x190 JUMPI PUSH1 0x0 DUP1 REVERT JUMPDEST POP PUSH2 0x1A4 PUSH2 0x19F CALLDATASIZE PUSH1 0x4 PUSH2 0x9A5 JUMP JUMPDEST PUSH2 0x583 JUMP JUMPDEST PUSH1 0x40 MLOAD PUSH1 0x1 PUSH1 0x1 PUSH1 0xA0 SHL SUB SWAP1 SWAP2 AND DUP2 MSTORE PUSH1 0x20 ADD PUSH2 0x115 JUMP JUMPDEST CALLVALUE DUP1 ISZERO PUSH2 0x1C8 JUMPI PUSH1 0x0 DUP1 REVERT JUMPDEST POP PUSH2 0x10B PUSH2 0x1D7 CALLDATASIZE PUSH1 0x4 PUSH2 0x94F JUMP JUMPDEST PUSH1 0x1 PUSH1 0x1 PUSH1 0xA0 SHL SUB AND PUSH1 0x0 SWAP1 DUP2 MSTORE PUSH1 0x3 PUSH1 0x20 MSTORE PUSH1 0x40 SWAP1 KECCAK256 SLOAD SWAP1 JUMP JUMPDEST CALLVALUE DUP1 ISZERO PUSH2 0x1FE JUMPI PUSH1 0x0 DUP1 REVERT JUMPDEST POP PUSH2 0x10B PUSH2 0x20D CALLDATASIZE PUSH1 0x4 PUSH2 0x94F JUMP JUMPDEST PUSH1 0x1 PUSH1 0x1 PUSH1 0xA0 SHL SUB AND PUSH1 0x0 SWAP1 DUP2 MSTORE PUSH1 0x2 PUSH1 0x20 MSTORE PUSH1 0x40 SWAP1 KECCAK256 SLOAD SWAP1 JUMP JUMPDEST CALLVALUE DUP1 ISZERO PUSH2 0x234 JUMPI PUSH1 0x0 DUP1 REVERT JUMPDEST POP PUSH2 0x10B PUSH2 0x243 CALLDATASIZE PUSH1 0x4 PUSH2 0x94F JUMP JUMPDEST PUSH1 0x1 PUSH1 0x1 PUSH1 0xA0 SHL SUB AND PUSH1 0x0 SWAP1 DUP2 MSTORE PUSH1 0x5 PUSH1 0x20 MSTORE PUSH1 0x40 SWAP1 KECCAK256 SLOAD SWAP1 JUMP JUMPDEST CALLVALUE DUP1 ISZERO PUSH2 0x26A JUMPI PUSH1 0x0 DUP1 REVERT JUMPDEST POP PUSH1 0x1 SLOAD PUSH2 0x10B JUMP JUMPDEST PUSH1 0x1 PUSH1 0x1 PUSH1 0xA0 SHL SUB DUP2 AND PUSH1 0x0 SWAP1 DUP2 MSTORE PUSH1 0x2 PUSH1 0x20 MSTORE PUSH1 0x40 SWAP1 KECCAK256 SLOAD PUSH2 0x2B1 JUMPI PUSH1 0x40 MLOAD PUSH3 0x461BCD PUSH1 0xE5 SHL DUP2 MSTORE PUSH1 0x4 ADD PUSH2 0x2A8 SWAP1 PUSH2 0x9BE JUMP JUMPDEST PUSH1 0x40 MLOAD DUP1 SWAP2 SUB SWAP1 REVERT JUMPDEST PUSH1 0x0 PUSH2 0x2BC PUSH1 0x1 SLOAD SWAP1 JUMP JUMPDEST PUSH2 0x2C6 SWAP1 SELFBALANCE PUSH2 0xA1A JUMP JUMPDEST SWAP1 POP PUSH1 0x0 PUSH2 0x2F3 DUP4 DUP4 PUSH2 0x2EE DUP7 PUSH1 0x1 PUSH1 0x1 PUSH1 0xA0 SHL SUB AND PUSH1 0x0 SWAP1 DUP2 MSTORE PUSH1 0x3 PUSH1 0x20 MSTORE PUSH1 0x40 SWAP1 KECCAK256 SLOAD SWAP1 JUMP JUMPDEST PUSH2 0x5B3 JUMP JUMPDEST SWAP1 POP DUP1 PUSH2 0x312 JUMPI PUSH1 0x40 MLOAD PUSH3 0x461BCD PUSH1 0xE5 SHL DUP2 MSTORE PUSH1 0x4 ADD PUSH2 0x2A8 SWAP1 PUSH2 0xA32 JUMP JUMPDEST PUSH1 0x1 PUSH1 0x1 PUSH1 0xA0 SHL SUB DUP4 AND PUSH1 0x0 SWAP1 DUP2 MSTORE PUSH1 0x3 PUSH1 0x20 MSTORE PUSH1 0x40 DUP2 KECCAK256 DUP1 SLOAD DUP4 SWAP3 SWAP1 PUSH2 0x33A SWAP1 DUP5 SWAP1 PUSH2 0xA1A JUMP JUMPDEST SWAP3 POP POP DUP2 SWAP1 SSTORE POP DUP1 PUSH1 0x1 PUSH1 0x0 DUP3 DUP3 SLOAD PUSH2 0x353 SWAP2 SWAP1 PUSH2 0xA1A JUMP JUMPDEST SWAP1 SWAP2 SSTORE POP PUSH2 0x363 SWAP1 POP DUP4 DUP3 PUSH2 0x5F8 JUMP JUMPDEST PUSH1 0x40 DUP1 MLOAD PUSH1 0x1 PUSH1 0x1 PUSH1 0xA0 SHL SUB DUP6 AND DUP2 MSTORE PUSH1 0x20 DUP2 ADD DUP4 SWAP1 MSTORE PUSH32 0xDF20FD1E76BC69D672E4814FAFB2C449BBA3A5369D8359ADF9E05E6FDE87B056 SWAP2 ADD PUSH1 0x40 MLOAD DUP1 SWAP2 SUB SWAP1 LOG1 POP POP POP JUMP JUMPDEST PUSH1 0x1 PUSH1 0x1 PUSH1 0xA0 SHL SUB DUP2 AND PUSH1 0x0 SWAP1 DUP2 MSTORE PUSH1 0x2 PUSH1 0x20 MSTORE PUSH1 0x40 SWAP1 KECCAK256 SLOAD PUSH2 0x3DF JUMPI PUSH1 0x40 MLOAD PUSH3 0x461BCD PUSH1 0xE5 SHL DUP2 MSTORE PUSH1 0x4 ADD PUSH2 0x2A8 SWAP1 PUSH2 0x9BE JUMP JUMPDEST PUSH1 0x1 PUSH1 0x1 PUSH1 0xA0 SHL SUB DUP3 AND PUSH1 0x0 SWAP1 DUP2 MSTORE PUSH1 0x5 PUSH1 0x20 MSTORE PUSH1 0x40 DUP2 KECCAK256 SLOAD PUSH1 0x40 MLOAD PUSH4 0x70A08231 PUSH1 0xE0 SHL DUP2 MSTORE ADDRESS PUSH1 0x4 DUP3 ADD MSTORE PUSH1 0x1 PUSH1 0x1 PUSH1 0xA0 SHL SUB DUP6 AND SWAP1 PUSH4 0x70A08231 SWAP1 PUSH1 0x24 ADD PUSH1 0x20 PUSH1 0x40 MLOAD DUP1 DUP4 SUB DUP2 DUP7 GAS STATICCALL ISZERO DUP1 ISZERO PUSH2 0x43C JUMPI RETURNDATASIZE PUSH1 0x0 DUP1 RETURNDATACOPY RETURNDATASIZE PUSH1 0x0 REVERT JUMPDEST POP POP POP POP PUSH1 0x40 MLOAD RETURNDATASIZE PUSH1 0x1F NOT PUSH1 0x1F DUP3 ADD AND DUP3 ADD DUP1 PUSH1 0x40 MSTORE POP DUP2 ADD SWAP1 PUSH2 0x460 SWAP2 SWAP1 PUSH2 0xA7D JUMP JUMPDEST PUSH2 0x46A SWAP2 SWAP1 PUSH2 0xA1A JUMP JUMPDEST SWAP1 POP PUSH1 0x0 PUSH2 0x4A3 DUP4 DUP4 PUSH2 0x2EE DUP8 DUP8 PUSH1 0x1 PUSH1 0x1 PUSH1 0xA0 SHL SUB SWAP2 DUP3 AND PUSH1 0x0 SWAP1 DUP2 MSTORE PUSH1 0x6 PUSH1 0x20 SWAP1 DUP2 MSTORE PUSH1 0x40 DUP1 DUP4 KECCAK256 SWAP4 SWAP1 SWAP5 AND DUP3 MSTORE SWAP2 SWAP1 SWAP2 MSTORE KECCAK256 SLOAD SWAP1 JUMP JUMPDEST SWAP1 POP DUP1 PUSH2 0x4C2 JUMPI PUSH1 0x40 MLOAD PUSH3 0x461BCD PUSH1 0xE5 SHL DUP2 MSTORE PUSH1 0x4 ADD PUSH2 0x2A8 SWAP1 PUSH2 0xA32 JUMP JUMPDEST PUSH1 0x1 PUSH1 0x1 PUSH1 0xA0 SHL SUB DUP1 DUP6 AND PUSH1 0x0 SWAP1 DUP2 MSTORE PUSH1 0x6 PUSH1 0x20 SWAP1 DUP2 MSTORE PUSH1 0x40 DUP1 DUP4 KECCAK256 SWAP4 DUP8 AND DUP4 MSTORE SWAP3 SWAP1 MSTORE SWAP1 DUP2 KECCAK256 DUP1 SLOAD DUP4 SWAP3 SWAP1 PUSH2 0x4F9 SWAP1 DUP5 SWAP1 PUSH2 0xA1A JUMP JUMPDEST SWAP1 SWAP2 SSTORE POP POP PUSH1 0x1 PUSH1 0x1 PUSH1 0xA0 SHL SUB DUP5 AND PUSH1 0x0 SWAP1 DUP2 MSTORE PUSH1 0x5 PUSH1 0x20 MSTORE PUSH1 0x40 DUP2 KECCAK256 DUP1 SLOAD DUP4 SWAP3 SWAP1 PUSH2 0x526 SWAP1 DUP5 SWAP1 PUSH2 0xA1A JUMP JUMPDEST SWAP1 SWAP2 SSTORE POP PUSH2 0x537 SWAP1 POP DUP5 DUP5 DUP4 PUSH2 0x716 JUMP JUMPDEST PUSH1 0x40 DUP1 MLOAD PUSH1 0x1 PUSH1 0x1 PUSH1 0xA0 SHL SUB DUP6 DUP2 AND DUP3 MSTORE PUSH1 0x20 DUP3 ADD DUP5 SWAP1 MSTORE DUP7 AND SWAP2 PUSH32 0x3BE5B7A71E84ED12875D241991C70855AC5817D847039E17A9D895C1CEB0F18A SWAP2 ADD PUSH1 0x40 MLOAD DUP1 SWAP2 SUB SWAP1 LOG2 POP POP POP POP JUMP JUMPDEST PUSH1 0x0 PUSH1 0x4 DUP3 DUP2 SLOAD DUP2 LT PUSH2 0x598 JUMPI PUSH2 0x598 PUSH2 0xA96 JUMP JUMPDEST PUSH1 0x0 SWAP2 DUP3 MSTORE PUSH1 0x20 SWAP1 SWAP2 KECCAK256 ADD SLOAD PUSH1 0x1 PUSH1 0x1 PUSH1 0xA0 SHL SUB AND SWAP3 SWAP2 POP POP JUMP JUMPDEST PUSH1 0x0 DUP1 SLOAD PUSH1 0x1 PUSH1 0x1 PUSH1 0xA0 SHL SUB DUP6 AND DUP3 MSTORE PUSH1 0x2 PUSH1 0x20 MSTORE PUSH1 0x40 DUP3 KECCAK256 SLOAD DUP4 SWAP2 SWAP1 PUSH2 0x5DA SWAP1 DUP7 PUSH2 0xAAC JUMP JUMPDEST PUSH2 0x5E4 SWAP2 SWAP1 PUSH2 0xACB JUMP JUMPDEST PUSH2 0x5EE SWAP2 SWAP1 PUSH2 0xAED JUMP JUMPDEST SWAP1 POP JUMPDEST SWAP4 SWAP3 POP POP POP JUMP JUMPDEST DUP1 SELFBALANCE LT ISZERO PUSH2 0x648 JUMPI PUSH1 0x40 MLOAD PUSH3 0x461BCD PUSH1 0xE5 SHL DUP2 MSTORE PUSH1 0x20 PUSH1 0x4 DUP3 ADD MSTORE PUSH1 0x1D PUSH1 0x24 DUP3 ADD MSTORE PUSH32 0x416464726573733A20696E73756666696369656E742062616C616E6365000000 PUSH1 0x44 DUP3 ADD MSTORE PUSH1 0x64 ADD PUSH2 0x2A8 JUMP JUMPDEST PUSH1 0x0 DUP3 PUSH1 0x1 PUSH1 0x1 PUSH1 0xA0 SHL SUB AND DUP3 PUSH1 0x40 MLOAD PUSH1 0x0 PUSH1 0x40 MLOAD DUP1 DUP4 SUB DUP2 DUP6 DUP8 GAS CALL SWAP3 POP POP POP RETURNDATASIZE DUP1 PUSH1 0x0 DUP2 EQ PUSH2 0x695 JUMPI PUSH1 0x40 MLOAD SWAP2 POP PUSH1 0x1F NOT PUSH1 0x3F RETURNDATASIZE ADD AND DUP3 ADD PUSH1 0x40 MSTORE RETURNDATASIZE DUP3 MSTORE RETURNDATASIZE PUSH1 0x0 PUSH1 0x20 DUP5 ADD RETURNDATACOPY PUSH2 0x69A JUMP JUMPDEST PUSH1 0x60 SWAP2 POP JUMPDEST POP POP SWAP1 POP DUP1 PUSH2 0x711 JUMPI PUSH1 0x40 MLOAD PUSH3 0x461BCD PUSH1 0xE5 SHL DUP2 MSTORE PUSH1 0x20 PUSH1 0x4 DUP3 ADD MSTORE PUSH1 0x3A PUSH1 0x24 DUP3 ADD MSTORE PUSH32 0x416464726573733A20756E61626C6520746F2073656E642076616C75652C2072 PUSH1 0x44 DUP3 ADD MSTORE PUSH32 0x6563697069656E74206D61792068617665207265766572746564000000000000 PUSH1 0x64 DUP3 ADD MSTORE PUSH1 0x84 ADD PUSH2 0x2A8 JUMP JUMPDEST POP POP POP JUMP JUMPDEST PUSH1 0x40 DUP1 MLOAD PUSH1 0x1 PUSH1 0x1 PUSH1 0xA0 SHL SUB DUP5 DUP2 AND PUSH1 0x24 DUP4 ADD MSTORE PUSH1 0x44 DUP1 DUP4 ADD DUP6 SWAP1 MSTORE DUP4 MLOAD DUP1 DUP5 SUB SWAP1 SWAP2 ADD DUP2 MSTORE PUSH1 0x64 SWAP1 SWAP3 ADD DUP4 MSTORE PUSH1 0x20 DUP1 DUP4 ADD DUP1 MLOAD PUSH1 0x1 PUSH1 0x1 PUSH1 0xE0 SHL SUB AND PUSH4 0xA9059CBB PUSH1 0xE0 SHL OR SWAP1 MSTORE DUP4 MLOAD DUP1 DUP6 ADD SWAP1 SWAP5 MSTORE DUP1 DUP5 MSTORE PUSH32 0x5361666545524332303A206C6F772D6C6576656C2063616C6C206661696C6564 SWAP1 DUP5 ADD MSTORE PUSH2 0x711 SWAP3 DUP7 SWAP3 SWAP2 PUSH1 0x0 SWAP2 PUSH2 0x7A6 SWAP2 DUP6 AND SWAP1 DUP5 SWAP1 PUSH2 0x823 JUMP JUMPDEST DUP1 MLOAD SWAP1 SWAP2 POP ISZERO PUSH2 0x711 JUMPI DUP1 DUP1 PUSH1 0x20 ADD SWAP1 MLOAD DUP2 ADD SWAP1 PUSH2 0x7C4 SWAP2 SWAP1 PUSH2 0xB04 JUMP JUMPDEST PUSH2 0x711 JUMPI PUSH1 0x40 MLOAD PUSH3 0x461BCD PUSH1 0xE5 SHL DUP2 MSTORE PUSH1 0x20 PUSH1 0x4 DUP3 ADD MSTORE PUSH1 0x2A PUSH1 0x24 DUP3 ADD MSTORE PUSH32 0x5361666545524332303A204552433230206F7065726174696F6E20646964206E PUSH1 0x44 DUP3 ADD MSTORE PUSH10 0x1BDD081CDD58D8D95959 PUSH1 0xB2 SHL PUSH1 0x64 DUP3 ADD MSTORE PUSH1 0x84 ADD PUSH2 0x2A8 JUMP JUMPDEST PUSH1 0x60 PUSH2 0x5EE DUP5 DUP5 PUSH1 0x0 DUP6 DUP6 PUSH1 0x1 PUSH1 0x1 PUSH1 0xA0 SHL SUB DUP6 AND EXTCODESIZE PUSH2 0x885 JUMPI PUSH1 0x40 MLOAD PUSH3 0x461BCD PUSH1 0xE5 SHL DUP2 MSTORE PUSH1 0x20 PUSH1 0x4 DUP3 ADD MSTORE PUSH1 0x1D PUSH1 0x24 DUP3 ADD MSTORE PUSH32 0x416464726573733A2063616C6C20746F206E6F6E2D636F6E7472616374000000 PUSH1 0x44 DUP3 ADD MSTORE PUSH1 0x64 ADD PUSH2 0x2A8 JUMP JUMPDEST PUSH1 0x0 DUP1 DUP7 PUSH1 0x1 PUSH1 0x1 PUSH1 0xA0 SHL SUB AND DUP6 DUP8 PUSH1 0x40 MLOAD PUSH2 0x8A1 SWAP2 SWAP1 PUSH2 0xB56 JUMP JUMPDEST PUSH1 0x0 PUSH1 0x40 MLOAD DUP1 DUP4 SUB DUP2 DUP6 DUP8 GAS CALL SWAP3 POP POP POP RETURNDATASIZE DUP1 PUSH1 0x0 DUP2 EQ PUSH2 0x8DE JUMPI PUSH1 0x40 MLOAD SWAP2 POP PUSH1 0x1F NOT PUSH1 0x3F RETURNDATASIZE ADD AND DUP3 ADD PUSH1 0x40 MSTORE RETURNDATASIZE DUP3 MSTORE RETURNDATASIZE PUSH1 0x0 PUSH1 0x20 DUP5 ADD RETURNDATACOPY PUSH2 0x8E3 JUMP JUMPDEST PUSH1 0x60 SWAP2 POP JUMPDEST POP SWAP2 POP SWAP2 POP PUSH2 0x8F3 DUP3 DUP3 DUP7 PUSH2 0x8FE JUMP JUMPDEST SWAP8 SWAP7 POP POP POP POP POP POP POP JUMP JUMPDEST PUSH1 0x60 DUP4 ISZERO PUSH2 0x90D JUMPI POP DUP2 PUSH2 0x5F1 JUMP JUMPDEST DUP3 MLOAD ISZERO PUSH2 0x91D JUMPI DUP3 MLOAD DUP1 DUP5 PUSH1 0x20 ADD REVERT JUMPDEST DUP2 PUSH1 0x40 MLOAD PUSH3 0x461BCD PUSH1 0xE5 SHL DUP2 MSTORE PUSH1 0x4 ADD PUSH2 0x2A8 SWAP2 SWAP1 PUSH2 0xB72 JUMP JUMPDEST PUSH1 0x1 PUSH1 0x1 PUSH1 0xA0 SHL SUB DUP2 AND DUP2 EQ PUSH2 0x94C JUMPI PUSH1 0x0 DUP1 REVERT JUMPDEST POP JUMP JUMPDEST PUSH1 0x0 PUSH1 0x20 DUP3 DUP5 SUB SLT ISZERO PUSH2 0x961 JUMPI PUSH1 0x0 DUP1 REVERT JUMPDEST DUP2 CALLDATALOAD PUSH2 0x5F1 DUP2 PUSH2 0x937 JUMP JUMPDEST PUSH1 0x0 DUP1 PUSH1 0x40 DUP4 DUP6 SUB SLT ISZERO PUSH2 0x97F JUMPI PUSH1 0x0 DUP1 REVERT JUMPDEST DUP3 CALLDATALOAD PUSH2 0x98A DUP2 PUSH2 0x937 JUMP JUMPDEST SWAP2 POP PUSH1 0x20 DUP4 ADD CALLDATALOAD PUSH2 0x99A DUP2 PUSH2 0x937 JUMP JUMPDEST DUP1 SWAP2 POP POP SWAP3 POP SWAP3 SWAP1 POP JUMP JUMPDEST PUSH1 0x0 PUSH1 0x20 DUP3 DUP5 SUB SLT ISZERO PUSH2 0x9B7 JUMPI PUSH1 0x0 DUP1 REVERT JUMPDEST POP CALLDATALOAD SWAP2 SWAP1 POP JUMP JUMPDEST PUSH1 0x20 DUP1 DUP3 MSTORE PUSH1 0x26 SWAP1 DUP3 ADD MSTORE PUSH32 0x5061796D656E7453706C69747465723A206163636F756E7420686173206E6F20 PUSH1 0x40 DUP3 ADD MSTORE PUSH6 0x736861726573 PUSH1 0xD0 SHL PUSH1 0x60 DUP3 ADD MSTORE PUSH1 0x80 ADD SWAP1 JUMP JUMPDEST PUSH4 0x4E487B71 PUSH1 0xE0 SHL PUSH1 0x0 MSTORE PUSH1 0x11 PUSH1 0x4 MSTORE PUSH1 0x24 PUSH1 0x0 REVERT JUMPDEST PUSH1 0x0 DUP3 NOT DUP3 GT ISZERO PUSH2 0xA2D JUMPI PUSH2 0xA2D PUSH2 0xA04 JUMP JUMPDEST POP ADD SWAP1 JUMP JUMPDEST PUSH1 0x20 DUP1 DUP3 MSTORE PUSH1 0x2B SWAP1 DUP3 ADD MSTORE PUSH32 0x5061796D656E7453706C69747465723A206163636F756E74206973206E6F7420 PUSH1 0x40 DUP3 ADD MSTORE PUSH11 0x191D59481C185E5B595B9D PUSH1 0xAA SHL PUSH1 0x60 DUP3 ADD MSTORE PUSH1 0x80 ADD SWAP1 JUMP JUMPDEST PUSH1 0x0 PUSH1 0x20 DUP3 DUP5 SUB SLT ISZERO PUSH2 0xA8F JUMPI PUSH1 0x0 DUP1 REVERT JUMPDEST POP MLOAD SWAP2 SWAP1 POP JUMP JUMPDEST PUSH4 0x4E487B71 PUSH1 0xE0 SHL PUSH1 0x0 MSTORE PUSH1 0x32 PUSH1 0x4 MSTORE PUSH1 0x24 PUSH1 0x0 REVERT JUMPDEST PUSH1 0x0 DUP2 PUSH1 0x0 NOT DIV DUP4 GT DUP3 ISZERO ISZERO AND ISZERO PUSH2 0xAC6 JUMPI PUSH2 0xAC6 PUSH2 0xA04 JUMP JUMPDEST POP MUL SWAP1 JUMP JUMPDEST PUSH1 0x0 DUP3 PUSH2 0xAE8 JUMPI PUSH4 0x4E487B71 PUSH1 0xE0 SHL PUSH1 0x0 MSTORE PUSH1 0x12 PUSH1 0x4 MSTORE PUSH1 0x24 PUSH1 0x0 REVERT JUMPDEST POP DIV SWAP1 JUMP JUMPDEST PUSH1 0x0 DUP3 DUP3 LT ISZERO PUSH2 0xAFF JUMPI PUSH2 0xAFF PUSH2 0xA04 JUMP JUMPDEST POP SUB SWAP1 JUMP JUMPDEST PUSH1 0x0 PUSH1 0x20 DUP3 DUP5 SUB SLT ISZERO PUSH2 0xB16 JUMPI PUSH1 0x0 DUP1 REVERT JUMPDEST DUP2 MLOAD DUP1 ISZERO ISZERO DUP2 EQ PUSH2 0x5F1 JUMPI PUSH1 0x0 DUP1 REVERT JUMPDEST PUSH1 0x0 JUMPDEST DUP4 DUP2 LT ISZERO PUSH2 0xB41 JUMPI DUP2 DUP2 ADD MLOAD DUP4 DUP3 ADD MSTORE PUSH1 0x20 ADD PUSH2 0xB29 JUMP JUMPDEST DUP4 DUP2 GT ISZERO PUSH2 0xB50 JUMPI PUSH1 0x0 DUP5 DUP5 ADD MSTORE JUMPDEST POP POP POP POP JUMP JUMPDEST PUSH1 0x0 DUP3 MLOAD PUSH2 0xB68 DUP2 DUP5 PUSH1 0x20 DUP8 ADD PUSH2 0xB26 JUMP JUMPDEST SWAP2 SWAP1 SWAP2 ADD SWAP3 SWAP2 POP POP JUMP JUMPDEST PUSH1 0x20 DUP2 MSTORE PUSH1 0x0 DUP3 MLOAD DUP1 PUSH1 0x20 DUP5 ADD MSTORE PUSH2 0xB91 DUP2 PUSH1 0x40 DUP6 ADD PUSH1 0x20 DUP8 ADD PUSH2 0xB26 JUMP JUMPDEST PUSH1 0x1F ADD PUSH1 0x1F NOT AND SWAP2 SWAP1 SWAP2 ADD PUSH1 0x40 ADD SWAP3 SWAP2 POP POP JUMP INVALID LOG2 PUSH5 0x6970667358 0x22 SLT KECCAK256 0xBE 0x22 0xE0 0x2E EXTCODESIZE SWAP7 0x4F 0xA8 NOT SWAP13 0xB6 0xAA 0xAD 0xB3 0xA7 COINBASE 0xB6 DUP10 0xF8 RETURNDATASIZE CODESIZE 0xB9 0xAB 0xC7 0xDA 0xDA DIFFICULTY LOG1 0x4C DUP8 0xB0 PUSH17 0x64736F6C634300080B0033000000000000 "
		},
		"gasEstimates": {
			"creation": {
				"codeDepositCost": "607000",
				"executionCost": "infinite",
				"totalCost": "infinite"
			},
			"external": {
				"payee(uint256)": "4619",
				"release(address)": "infinite",
				"release(address,address)": "infinite",
				"released(address)": "2542",
				"released(address,address)": "infinite",
				"shares(address)": "2564",
				"totalReleased()": "2369",
				"totalReleased(address)": "2586",
				"totalShares()": "2293"
			}
		},
		"methodIdentifiers": {
			"payee(uint256)": "8b83209b",
			"release(address)": "19165587",
			"release(address,address)": "48b75044",
			"released(address)": "9852595c",
			"released(address,address)": "406072a9",
			"shares(address)": "ce7c2ac2",
			"totalReleased()": "e33b7de3",
			"totalReleased(address)": "d79779b2",
			"totalShares()": "3a98ef39"
		}
	},
	"abi": [
		{
			"inputs": [
				{
					"internalType": "address[]",
					"name": "_payees",
					"type": "address[]"
				},
				{
					"internalType": "uint256[]",
					"name": "_shares",
					"type": "uint256[]"
				}
			],
			"stateMutability": "payable",
			"type": "constructor"
		},
		{
			"anonymous": false,
			"inputs": [
				{
					"indexed": true,
					"internalType": "contract IERC20",
					"name": "token",
					"type": "address"
				},
				{
					"indexed": false,
					"internalType": "address",
					"name": "to",
					"type": "address"
				},
				{
					"indexed": false,
					"internalType": "uint256",
					"name": "amount",
					"type": "uint256"
				}
			],
			"name": "ERC20PaymentReleased",
			"type": "event"
		},
		{
			"anonymous": false,
			"inputs": [
				{
					"indexed": false,
					"internalType": "address",
					"name": "account",
					"type": "address"
				},
				{
					"indexed": false,
					"internalType": "uint256",
					"name": "shares",
					"type": "uint256"
				}
			],
			"name": "PayeeAdded",
			"type": "event"
		},
		{
			"anonymous": false,
			"inputs": [
				{
					"indexed": false,
					"internalType": "address",
					"name": "from",
					"type": "address"
				},
				{
					"indexed": false,
					"internalType": "uint256",
					"name": "amount",
					"type": "uint256"
				}
			],
			"name": "PaymentReceived",
			"type": "event"
		},
		{
			"anonymous": false,
			"inputs": [
				{
					"indexed": false,
					"internalType": "address",
					"name": "to",
					"type": "address"
				},
				{
					"indexed": false,
					"internalType": "uint256",
					"name": "amount",
					"type": "uint256"
				}
			],
			"name": "PaymentReleased",
			"type": "event"
		},
		{
			"inputs": [
				{
					"internalType": "uint256",
					"name": "index",
					"type": "uint256"
				}
			],
			"name": "payee",
			"outputs": [
				{
					"internalType": "address",
					"name": "",
					"type": "address"
				}
			],
			"stateMutability": "view",
			"type": "function"
		},
		{
			"inputs": [
				{
					"internalType": "address payable",
					"name": "account",
					"type": "address"
				}
			],
			"name": "release",
			"outputs": [],
			"stateMutability": "nonpayable",
			"type": "function"
		},
		{
			"inputs": [
				{
					"internalType": "contract IERC20",
					"name": "token",
					"type": "address"
				},
				{
					"internalType": "address",
					"name": "account",
					"type": "address"
				}
			],
			"name": "release",
			"outputs": [],
			"stateMutability": "nonpayable",
			"type": "function"
		},
		{
			"inputs": [
				{
					"internalType": "contract IERC20",
					"name": "token",
					"type": "address"
				},
				{
					"internalType": "address",
					"name": "account",
					"type": "address"
				}
			],
			"name": "released",
			"outputs": [
				{
					"internalType": "uint256",
					"name": "",
					"type": "uint256"
				}
			],
			"stateMutability": "view",
			"type": "function"
		},
		{
			"inputs": [
				{
					"internalType": "address",
					"name": "account",
					"type": "address"
				}
			],
			"name": "released",
			"outputs": [
				{
					"internalType": "uint256",
					"name": "",
					"type": "uint256"
				}
			],
			"stateMutability": "view",
			"type": "function"
		},
		{
			"inputs": [
				{
					"internalType": "address",
					"name": "account",
					"type": "address"
				}
			],
			"name": "shares",
			"outputs": [
				{
					"internalType": "uint256",
					"name": "",
					"type": "uint256"
				}
			],
			"stateMutability": "view",
			"type": "function"
		},
		{
			"inputs": [
				{
					"internalType": "contract IERC20",
					"name": "token",
					"type": "address"
				}
			],
			"name": "totalReleased",
			"outputs": [
				{
					"internalType": "uint256",
					"name": "",
					"type": "uint256"
				}
			],
			"stateMutability": "view",
			"type": "function"
		},
		{
			"inputs": [],
			"name": "totalReleased",
			"outputs": [
				{
					"internalType": "uint256",
					"name": "",
					"type": "uint256"
				}
			],
			"stateMutability": "view",
			"type": "function"
		},
		{
			"inputs": [],
			"name": "totalShares",
			"outputs": [
				{
					"internalType": "uint256",
					"name": "",
					"type": "uint256"
				}
			],
			"stateMutability": "view",
			"type": "function"
		},
		{
			"stateMutability": "payable",
			"type": "receive"
		}
	]
}